:1000000059C0000072C0000070C000006EC0000047
:100010006CC000006AC0000068C0000066C000003C
:1000200064C0000062C0000060C000005EC000004C
:100030005CC000005AC0000058C0000056C000005C
:1000400054C0000052C0000075C1000086C100000D
:100050004CC000004AC0000048C0000046C000007C
:1000600044C0000042C0000040C000003EC000008C
:1000700098C10000F4C1000038C0000036C0000084
:1000800034C0000032C0000030C000002EC00000AC
:100090002CC000002AC0000028C0000026C00000BC
:1000A00024C0000022C0000020C000001EC00000CC
:1000B0001CC0000011241FBECFEFD8E0DEBFCDBFB3
:1000C00011E0A0E0B1E0E6E2F5E002C005900D929B
:1000D000A431B107D9F721E0A4E1B1E001C01D923C
:1000E000A533B207E1F703D21CC28ACFCF93DF93C7
:1000F000CDB7DEB785EC90E0FC01108284EC90E097
:1001000027E6FC01208381EC90E028EBFC012083B2
:1001100081EC90E028E1FC01208382EC90E026E075
:10012000FC0120838DEC90E0FC0110828CEC90E0CF
:1001300027E6FC01208389EC90E028EBFC0120837A
:1001400089EC90E028E1FC0120838AEC90E026E035
:10015000FC0120830000DF91CF910895CF93DF93BE
:1001600000D01F92CDB7DEB79A8389836B838981D4
:100170009A8190932F0180932E018B8180932D0182
:100180001092300100000F900F900F90DF91CF91EF
:100190000895CF93DF9300D01F92CDB7DEB79A8337
:1001A00089836B8389819A81909333018093320193
:1001B0008B8180933101109234018EEC90E040915C
:1001C00032015091330120913401222F30E0240F6D
:1001D000351FF9012081FC012083809134018F5F5C
:1001E0008093340181EC90E020E2FC012083000048
:1001F0000F900F900F90DF91CF910895CF93DF93E1
:1002000000D000D0CDB7DEB780911401803809F05E
:1002100089C080911501863009F084C08091160153
:10022000833809F07FC080911701803309F07AC0CC
:1002300080911A018E3209F075C080911401282F27
:1002400030E080911501882F90E0280F391F8091B0
:100250001601882F90E0280F391F80911701882FF1
:1002600090E0820F931F9A83898310922A011C8247
:100270001B828B819C8107978CF58B819C810496D6
:100280008C5E9E4FFC018081809329018091290121
:10029000882F90E029813A81820F931F9A83898366
:1002A00080912901803320F0809129018B3320F047
:1002B000809129018E3249F4209129018B819C8102
:1002C000805E9E4FFC01208303C081E080932A0161
:1002D0008B819C8101969C838B83CBCF80912A015B
:1002E000882301F589819A81907899231CF40197DC
:1002F0009F6F01969C0180E091E0AC01421B530B83
:100300009A0180911F01882F90E02817390751F436
:100310008DE0809327018CE28093220168E080E2E7
:1003200091E01CDF00000F900F900F900F90DF9175
:10033000CF9108951F920F9200905F000F921124A9
:10034000CF93DF93CDB7DEB70000DF91CF910F9051
:1003500000925F000F901F9018951F920F920090CF
:100360005F000F9211248F939F93EF93FF93CF938E
:10037000DF93CDB7DEB786EC90E0FC0180818093FF
:100380002B0181E080932C010000DF91CF91FF9140
:10039000EF919F918F910F9000925F000F901F90AF
:1003A00018951F920F9200905F000F9211242F93C7
:1003B0003F934F935F936F937F938F939F93AF93ED
:1003C000BF93EF93FF93CF93DF93CDB7DEB78091C9
:1003D000150180931401809116018093150180917D
:1003E0001701809316018091180180931701809165
:1003F00019018093180180911A018093190180914D
:100400001B0180931A0180911C0180931B01809134
:100410001D0180931C0180911E0180931D0180911C
:100420001F0180931E018EEC90E0FC01808180937F
:100430001F01E4DE0000DF91CF91FF91EF91BF91AA
:10044000AF919F918F917F916F915F914F913F916C
:100450002F910F9000925F000F901F9018951F92A0
:100460000F9200905F000F9211242F933F934F93B0
:100470005F938F939F93EF93FF93CF93DF93CDB7CA
:10048000DEB7809134018F5F809334019091310108
:1004900080913401981751F489EC90E029EC30E018
:1004A000F90120812F7DFC01208310C08EEC90E0AB
:1004B000409132015091330120913401222F30E0DC
:1004C000240F351FF9012081FC0120830000DF91FA
:1004D000CF91FF91EF919F918F915F914F913F91BC
:1004E0002F910F9000925F000F901F901895CF935F
:1004F000DF93CDB7DEB7FADD65E084E091E049DE59
:1005000065E089E091E045DE65E08EE091E041DE66
:1005100065E080E091E03DDE80E090E0DF91CF910A
:060520000895F894FFCFDE
:1005260080060377FA040C02F4FA040500FDFA04C7
:040536000A00F800BF
:00000001FF
